:1000000020C044C043C042C041C057C13FC03EC0F1
:100010003DC03CC03BC03AC039C038C037C0010207
:100020000408102020041008020202020202020248
:100030000202000000003800000000003700A600A7
:10004000AB0011241FBECFE5D2E0DEBFCDBF20E064
:10005000A6E6B0E001C01D92AF37B207E1F710E0AD
:10006000A0E6B0E0E8ECF6E002C005900D92A636FE
:10007000B107D9F710E0C0E4D0E003C02297FE0139
:10008000ECD1CE33D107D1F7CAD112C3B9CF61E0D9
:1000900086E690E0EAD086E690E0DFC0CF93DF937B
:1000A000C0E0D0E020E03AE040E0BE0186E690E02B
:1000B0008ED02196C034D105A9F786E690E0AED067
:1000C00068EE73E080E090E066D1C0E0D0E02AE026
:1000D00030E040E0BE0186E690E079D02196C03461
:1000E000D105A9F786E690E099D068EE73E080E04C
:1000F00090E051D1C0E0D0E020E030E04AE0BE0125
:1001000086E690E064D02196C034D105A9F786E652
:1001100090E084D068EE73E080E090E03CD1C0E0F5
:10012000D0E02AE03AE04AE0BE0186E690E04FD017
:100130002196C034D105A9F786E690E06FD068EE2D
:1001400073E080E090E0DF91CF9125C160E470E042
:1001500086E690E028C086E690E086C00F931F9365
:10016000D8019C91822F80958923292B3FB7F89441
:10017000FB01460F571FE417F50789F0919168E0DE
:100180002C9300C097FF8C93990F000000C000C013
:1001900000C008F48C9300C06A9591F7ECCF3FBF84
:1001A0001F910F910895CF93DF93EC01CB017983D9
:1001B000688363E070E03ED154D19B838A831D82C3
:1001C00081E08C8382E08E83DF91CF910895FC01E2
:1001D000CB016081718186179707F0F463E070E0CE
:1001E00029D15581A281B381A80FB91FA50FB11DD7
:1001F0002C932481A281B381A80FB91FA20FB11D36
:100200003C9326810280F381E02DE80FF91FE20F75
:10021000F11D408380E0089581E00895EF92FF9200
:100220000F931F93FC01A185B2858C919385892B37
:100230008C93E184F284078110858081918163E051
:1002400070E0F8D0628173812385AC01CF0186DF35
:100250001F910F91FF90EF900895FC01158281E0AE
:10026000848382E0868308950895DC0170E0FB01B9
:10027000E25EFF4FE4911B96EC931B97685D7F4F06
:10028000FB01249130E0220F331F2E5C3F4FF90118
:100290008591949118969C938E931797FB01649186
:1002A000E62FF0E0EE0FFF1FE85CFF4F8591949181
:1002B0001A969C938E93199708951F920F920FB6DA
:1002C0000F9211242F933F938F939F93AF93BF93DC
:1002D0008091730090917400A0917500B0917600A8
:1002E0003091720023E0230F2D3720F40196A11DD9
:1002F000B11D05C026E8230F0296A11DB11D209354
:1003000072008093730090937400A0937500B09373
:1003100076008091770090917800A0917900B0915B
:100320007A000196A11DB11D80937700909378000B
:10033000A0937900B0937A00BF91AF919F918F9174
:100340003F912F910F900FBE0F901F9018953FB7C0
:10035000F8948091770090917800A0917900B09105
:100360007A0022B708B601FE05C02F3F19F00196AA
:10037000A11DB11D3FBF6627782F892F9A2F620FCD
:10038000711D811D911D42E0660F771F881F991F07
:100390004A95D1F70895CF92DF92EF92FF92CF93D3
:1003A000DF936B017C01D3DFEB01C114D104E104C5
:1003B000F10479F03ED0CBDF6C1B7D0B683E7340BF
:1003C000A0F381E0C81AD108E108F108C851DC4F58
:1003D000ECCFDF91CF91FF90EF90DF90CF90089519
:1003E00078948AB582608ABD8AB581608ABD83B7F8
:1003F000826083BF83B7816083BF89B7826089BF12
:1004000080B7826080BF80B7816080BF329A319AA6
:10041000309A379A08958CB580648CBD0895E0DFDA
:10042000FADF35DEC0E0D0E039DE2097E9F3E8DD21
:10043000FBCF08950024552704C0080E591F880FCC
:10044000991F009729F076956795B8F37105B9F76C
:10045000802D952F0895EE0FFF1F0590F491E02D4C
:100460000994CF93DF938230910510F482E090E0FD
:10047000E0917D00F0917E0020E030E0A0E0B0E06F
:10048000309739F14081518148175907B8F0481722
:10049000590771F482819381109729F013969C93E8
:1004A0008E9312972CC090937E0080937D0027C07E
:1004B0002115310531F04217530718F0A901DB016E
:1004C00001C0EF019A01BD01DF010280F381E02D3F
:1004D000D7CF21153105F9F0281B390B2430310510
:1004E00080F48A819B816115710521F0FB01938362
:1004F000828304C090937E0080937D00FE0132963B
:1005000044C0FE01E20FF31F819391932250310901
:10051000398328833AC020917B0030917C00232BC3
:1005200041F4209162003091630030937C0020936D
:100530007B0020916000309161002115310541F46C
:100540002DB73EB74091640050916500241B350BD8
:10055000E0917B00F0917C00E217F307A0F42E1BE2
:100560003F0B2817390778F0AC014E5F5F4F241717
:10057000350748F04E0F5F1F50937C0040937B007F
:100580008193919302C0E0E0F0E0CF01DF91CF9141
:100590000895CF93DF93009709F487C0FC01329749
:1005A00013821282C0917D00D0917E00209781F449
:1005B00020813181280F391F80917B0090917C0030
:1005C0008217930779F5F0937C00E0937B006DC070
:1005D000DE0120E030E0AE17BF0750F412964D91D7
:1005E0005C9113979D014115510509F1DA01F3CF93
:1005F000B383A28340815181840F951F8A179B0783
:1006000071F48D919C911197840F951F029691839F
:10061000808312968D919C911397938382832115E9
:10062000310529F4F0937E00E0937D003EC0D901AE
:100630001396FC93EE9312974D915D91A40FB51F05
:10064000EA17FB0779F480819181840F951F029648
:10065000D90111969C938E938281938113969C93DA
:100660008E931297E0E0F0E08A819B81009719F069
:10067000FE01EC01F9CFCE01029628813981820F6B
:10068000931F20917B0030917C002817390769F473
:10069000309729F410927E0010927D0002C01382E0
:1006A0001282D0937C00C0937B00DF91CF9108959C
:1006B00010E0C0E4D0E003C0FE01CFDE2296C234D9
:0806C000D107D1F7F894FFCF38
:0606C80000007F0080002D
:00000001FF
